:100000000C94C9010C945B190C9430190C940519CB
:100010000C94DA180C94AF180C9484180C9459189A
:100020000C942E180C94FA010C94FA010C94FA0119
:100030000C94FA010C94FA010C94FA010C94FA0154
:100040000C94FA010C94FA010C94FA010C94FA0144
:100050000C94FA010C94FA010C94FA010C94E41734
:100060000C94FA010C94B0190C9486190C94FA01B2
:100070000C94FA010C94FA010C94FA010C94FA0114
:100080000C94FA010C94FA010C94FA010C94FA0104
:100090000C94FA010C94FA010C94FA010C94FA01F4
:1000A0000C94FA010C94FA010C94FA010C94FA01E4
:1000B0000C94FA010C94FA010C94FA010C94FA01D4
:1000C0000C94FA010C94FA010C94FA010C94FA01C4
:1000D0000C94FA010C94FA010C94FA010C94FA01B4
:1000E0000C94FA010C944B020C94F6050C94650DDB
:1000F0000C94580A0C94CC140C9477030C942B1584
:100100000C942E090C944C0A0C9431020C94470266
:100110000C9466020C9474090C9459030C944715C2
:100120000C94631A0C94F1030C94B10A0C940F15FF
:100130000C94F1020C944A030C94FC050C94D7081F
:100140000C94B40A0C945D170C946E060C948B03FB
:100150000C946B090C944F0A0C94F9020C94E20372
:100160000C9478020C944F020C94B4030C9425095F
:100170000C9405040C94300A0C9412030C94820223
:100180000C9474020C946A020C94520A0C94A80BFE
:100190000C942D170C9469060C94D00D0C94EC0D56
:1001A0000C94FE080C94E90F0C9440030C94FE028E
:1001B0000C94EA050C94AE0A0C9471090C9452024A
:1001C0000C942B090C9458020C94DA080C944A16DF
:1001D0000C9477090C946D030C9413040C9474061E
:1001E0000C9498040C9470020C94AB0B0C942C039C
:1001F0000C9468090C94E4050C94000E0C946E09A0
:100200000C9428090C942C020C9481030C94B503D3
:100210000C945C020C94A50B0C94F10B0C94220929
:100220000C94550A0C9471060C94F0050C941C0364
:100230000C9463030C94E3080C9424030C947E0246
:100240000C9436030C94DD080C949A070C9443022A
:100250000C94E0080C9408030C9462020C944B0478
:100260000C94030E0C9478060C946C110C94DE051F
:1002700000002100240027002A002D003000330058
:1002800001010000040107010A010000220025000D
:1002900028002B002E00310034000201000005016F
:1002A00008010B0100000A0B02090C0D0E080703E0
:1002B0000401000000000000000000000000000039
:1002C000000000000000000000000000000000002E
:1002D00012111000000000000000000000000000EB
:1002E00000000000000000000000010210202008B3
:1002F0000810204010204080020102010804020181
:1003000001020408102040808040201008040201EF
:100310008004020180402010080402010804020148
:1003200001020408102040800102040810204080CF
:10033000000020002300260029002C002F0032009E
:100340000001000003010601090105050505070577
:1003500008080808020202020A0A08080404040441
:10036000010101010101010103030303030303036D
:10037000040707070C0C0C0C0C0C0C0C02020202FC
:1003800006060606060606060B0B0B0B0B0B0B0BE5
:10039000631A11241FBECFEFD1E2DEBFCDBF00E054
:1003A0000CBF15E0A0E0B2E0EEEEFDE400E00BBF14
:1003B00002C007900D92AA3EB107D9F72CE0AAEE31
:1003C000B5E001C01D92A43BB207E1F711E0C9EC12
:1003D000D1E000E006C021970109802FFE010E94B4
:1003E0007222C83CD10780E00807A9F70E94E11CEF
:1003F0000C94F5260C940000282F30E0F901EC5500
:10040000FD4F9491F901E651FD4F4491265B3C4F1D
:10041000F9012491222309F435C0992311F1915057
:100420009231F8F4E92FF0E08827E65EFD4F8F4F18
:100430000C9472224B024F022C02430247023102FB
:10044000520258025C02620266026A027002740280
:10045000310278027E028202809180008F77809341
:100460008000E22FF0E0EE0FFF1FE657FD4FA59151
:10047000B4918FB7F894EC91611148C040954E2328
:100480004C938FBF0895809180008F7DE8CF80913D
:100490008000877FE4CF84B58F7784BDE2CF84B5B9
:1004A0008F7DFBCF8091B0008F778093B000D9CF44
:1004B0008091B0008F7DF9CF809190008F778093ED
:1004C0009000CFCF809190008F7DF9CF80919000E8
:1004D000877FF5CF8091A0008F778093A000C1CF58
:1004E0008091A0008F7DF9CF8091A000877FF5CF0C
:1004F000809120018F7780932001B3CF80912001DC
:100500008F7DF9CF80912001877FF5CF4E2BB8CF1B
:10051000CF93DF9390E0FC01E651FD4F2491865B81
:100520009C4FFC0184918823D1F090E0880F991FA3
:10053000FC01E059FD4FA591B491FC01E657FD4F38
:10054000C591D491623071F49FB7F8943C91822F99
:10055000809583238C93E8812E2B28839FBFDF9186
:10056000CF9108958FB7F894EC912E2B2C938FBFD9
:10057000F6CF1F93CF93DF93182FEB0161E00E941A
:100580008802209739F460E0812FDF91CF911F918D
:100590000C94FC01CF3FD10511F461E0F5CFE12FC0
:1005A000F0E0EC55FD4FE491E150E23108F0B3C0CA
:1005B000F0E08827E152FD4F8F4F0C947222F10238
:1005C000F902FE02080312038B031C0324032C030D
:1005D000360340034A03590363038B036D03770318
:1005E000810384B5806884BDC7BDDF91CF911F9121
:1005F000089584B5806284BDC8BDF7CF8091800026
:10060000806880938000D0938900C0938800EDCFEC
:1006100080918000806280938000D0938B00C09393
:100620008A00E3CF80918000886080938000D0931F
:100630008D00C0938C00D9CF8091B00080688093EA
:10064000B000C093B300D1CF8091B000806280939E
:10065000B000C093B400C9CF8091900080688093AF
:100660009000D0939900C0939800BFCF80919000E4
:10067000806280939000D0939B00C0939A00B5CF86
:1006800080919000886080939000D0939D00C093EB
:100690009C00ABCF8091A00080688093A0008091E7
:1006A000A0008F7B8093A000D093A900C093A800E6
:1006B0009CCF8091A00080628093A000D093AB007B
:1006C000C093AA0092CF8091A00088608093A00080
:1006D000D093AD00C093AC0088CF8091200180689A
:1006E00080932001D0932901C09328017ECF80916F
:1006F0002001806280932001D0932B01C0932A01B6
:1007000074CF80912001886080932001D0932D01C7
:10071000C0932C016ACFC038D1050CF03ECF33CF47
:10072000CF93DF93EC0160E089810E94FC0160E0DF
:100730008A810E94FC016FEF70E088810E94B902FB
:100740008FEF9FEF9B878A871986DF91CF9108955E
:100750002FB7F894609113067091140680911506D6
:10076000909116062FBF08950895AF92BF92CF9231
:10077000DF92EF92FF920F931F93CF93DF936C0161
:100780007B018B01040F151FEB015E01AE18BF0842
:10079000C017D10759F06991D601ED91FC910190F4
:1007A000F081E02DC6011995892B79F7C501DF91FC
:1007B000CF911F910F91FF90EF90DF90CF90BF905E
:1007C000AF900895FC01538D448D252F30E0842F88
:1007D00090E0821B930B541710F0CF960895019769
:1007E0000895FC01918D828D981761F0A28DAE0F56
:1007F000BF2FB11D5D968C91928D9F5F9F73928FDD
:1008000090E008958FEF9FEF0895FC01918D828D08
:10081000981731F0828DE80FF11D858D90E00895D5
:100820008FEF9FEF0895FC01918D228D892F90E02D
:10083000805C9F4F821B91098F739927089587E1F0
:1008400096E00E94130421E0892B09F420E0822F16
:100850000895FC01A48DA80FB92FB11DA35ABF4F55
:100860002C91848D90E001968F739927848FA689AF
:10087000B7892C93A089B1898C91837080648C9303
:10088000938D848D981306C00288F389E02D8081B2
:100890008F7D80830895EF92FF920F931F93CF93E4
:1008A000DF93EC0181E0888F9B8D8C8D98131AC0AB
:1008B000E889F989808185FF15C09FB7F894EE8992
:1008C000FF896083E889F9898081837080648083EF
:1008D0009FBF81E090E0DF91CF911F910F91FF903A
:1008E000EF900895F62E0B8D10E00F5F1F4F0F73E2
:1008F0001127E02E8C8D8E110CC00FB607FCFACF9D
:10090000E889F989808185FFF5CFCE010E9429040D
:10091000F1CFEB8DEC0FFD2FF11DE35AFF4FF0826D
:100920009FB7F8940B8FEA89FB8980818062CFCFD3
:10093000CF93DF93EC01888D8823B9F0AA89BB8916
:10094000E889F9898C9185FD03C0808186FD0DC001
:100950000FB607FCF7CF8C9185FFF2CF808185FF22
:10096000EDCFCE010E942904E9CFDF91CF91089508
:1009700080E090E0892B29F00E941F0481110E94E1
:10098000000080E090E0892B49F080E090E0892B26
:1009900029F00E94000081110E94000080E090E098
:1009A000892B49F080E090E0892B29F00E9400001B
:1009B00081110E94000080E090E0892B49F080E0E6
:1009C00090E0892B29F00E94000081110C94000016
:1009D0000895CF93DF93EC0116161706ACF46B83E2
:1009E00061E089810E94FC0160E08A810E94FC0133
:1009F0006B8170E088810E94B9021B861A8681E0B3
:100A00008987DF91CF91089561157105B1F07195D6
:100A1000619571096B8360E089810E94FC0161E04E
:100A20008A810E94FC016B8170E088810E94B9027A
:100A300081E090E09B878A87E3CFDF91CF910C9490
:100A40009003CF92DF92EF92FF920F931F93CF9379
:100A5000DF93EC01E62EC72EF42ED52E8EEF97E015
:100A6000DE018D939D938D0162E08E2D0E948802A0
:100A700062E08F2D0E9488028E2D9C2DFC01E65B8A
:100A8000FC4FE491F0E0EE0FFF1FE05DFC4FA591FD
:100A9000B491BB83AA83FC01E651FD4F24912E83C0
:100AA0008F2D9D2DFC01E65BFC4FE491F0E0EE0FF5
:100AB000FF1FE05DFC4F459154915D834C83FC0129
:100AC000E651FD4FE491EF8319861A861B861C863A
:100AD0008BE39FE10197F1F78C91282391E009F4D2
:100AE00090E0DA018C91E82309F092609887B801D0
:100AF0008E2D0E94E6198D87B8018F2D0E94E61970
:100B00009D85890F8D878CE192E09F878E87198A5A
:100B1000188A1B8A1A8A1C8E1D8E1E8E1F8E18A282
:100B200019A21AA21BA2DF91CF911F910F91FF90E2
:100B3000EF90DF90CF900895DC01ED91FD918081E1
:100B4000ED91FD919081ED91FD916C9163708E23FB
:100B500009F064609F2309F06860E9EBF5E0E60FB7
:100B6000F11D659565956D936D917D918D919D912B
:100B7000099423C01AC012C016C010C01EC009C0FC
:100B800014C013C006C019C009C00DC007C00DC0F5
:100B900014C062507040804090400BC06150704063
:100BA0008040904006C06E5F01C06F5F7F4F8F4FE7
:100BB0009F4F9E938E937E936E9308958091F4053C
:100BC0009091F5050C949C058091F2059091F305A8
:100BD0000C949C058091F0059091F1050C949C0576
:100BE0008091EE059091EF050C949C058091EC05A9
:100BF0009091ED050C949C058091EA059091EB0590
:100C00000C949C05CF92DF92EF92FF920F931F936B
:100C1000CF93DF9300D000D01F921F92CDB7DEB7E5
:100C2000FB01DC014D915D916D917C9113970081E9
:100C3000118122813381401B510B620B730B14967F
:100C4000CD90DD90ED90FC90179704811581268161
:100C50003781D701C601801B910BA20BB30B8130EA
:100C60002AEC92072AE9A2072BE3B20744F09A5C28
:100C7000AA49BB434F5F5F4F6F4F7F4FF0CFB7FF26
:100C800008C09653A546B44C4150510961097109F9
:100C9000F6CF49835A836B837C838D839E83AF8396
:100CA000B887242F3A816B815C817E81462F682F23
:100CB0008F81988528960FB6F894DEBF0FBECDBF02
:100CC000DF91CF911F910F91FF90EF90DF90CF9028
:100CD00008958A579B4FFC018081089582EE92E02F
:100CE000089583E093E00895FC0180A591A50895FF
:100CF000EF92FF920F931F93CF93DF9300D01F9239
:100D00001F92CDB7DEB7643671054CF0FC01EA578F
:100D1000FB4F2081F12CE12C222309F452C0DA018F
:100D20007B018C01BC01615E7D4FED91FC910190D6
:100D3000F081E02DCA011995B801685E7D4F2FEF53
:100D4000DB012C93F801E75EFD4F2EEF20833196F7
:100D50008083319690833196292F280F2095208308
:100D60003196E0821696FC9245E050E030E020E0BB
:100D70007C01B6E0EB0EF11CE416F50634F0A1910F
:100D80002A0F311D4F5F5F4FF7CF7C01E8E0EE0E79
:100D9000F11C800F911FFC01E15EFD4F2095208327
:100DA000F1E0EF16F2E0FF06CCF4D80112968D9137
:100DB0009C91DC01ED91FC910280F381E02DA70173
:100DC0001995C7010F900F900F900F900F90DF9122
:100DD000CF911F910F91FF90EF90089582E592E0DF
:100DE0009A83898383E08B8382E293E09D838C8363
:100DF000D801ED91FC910190F081E02DAE014F5FA3
:100E00005F4F67E070E0C8011995EE24EA94FE2C6C
:100E1000D8CF0F931F93CF93DF9300D000D000D093
:100E20001F92CDB7DEB78C0186E492E09A83898366
:100E30001B821C821D821E821F82188619861A86BA
:100E4000D801ED91FC910190F081E02DAE014F5F52
:100E50005F4F6AE070E0C80119950E94A803F8018D
:100E600060877187828793872A960FB6F894DEBFD2
:100E70000FBECDBFDF91CF911F910F9108958F923B
:100E80009F92AF92BF92CF92DF92EF92FF920F9319
:100E90001F93CF93DF9300D000D01F921F92CDB746
:100EA000DEB78C010E94A80328EE33E040E050E05A
:100EB0000E94502269017A019B01AC0160E472E456
:100EC0008FE090E00E942C22F80180889188A2880F
:100ED000B388680D791D8A1D9B1D0485158526859F
:100EE0003785C00ED11EE21EF31E20E03AEC4AE91F
:100EF0005BE30E945022C20ED31EE41EF51EC9827F
:100F0000DA82EB82FC822C2D3A814B815C8128961F
:100F10000FB6F894DEBF0FBECDBFDF91CF911F910A
:100F20000F91FF90EF90DF90CF90BF90AF909F9088
:100F30008F900895DC015E96ED91FC918081918106
:100F4000A281B38180930A0690930B06A0930C06AE
:100F5000B0930D0684819581A681B78180930606A2
:100F600090930706A0930806B09309068EEF97E0CA
:100F70000E943F07E4EBF6E02083318342835383F2
:100F8000648375838683978308952F923F924F924F
:100F90005F926F927F928F929F92AF92BF92CF9209
:100FA000DF92EF92FF920F931F93CF93DF93CDB712
:100FB000DEB768970FB6F894DEBF0FBECDBF8C01C9
:100FC000FC018585823008F0B9C0F894C80102960A
:100FD0000E949C05F801C184D284E384F48478944F
:100FE000808191810E943F0729873A874B875C87E0
:100FF0006D877E878F87988B1801FCE12F0E311C3F
:10100000B101CE0109960E940206298B3A8B4B8BC7
:101010005C8B6D8B7E8B8F8B988FF8018289938987
:10102000092E000CAA0BBB0BA7019601281B390B3C
:101030004A0B5B0BCA01B9010E94C4230E948C2396
:10104000072E000C880B990B0E94C4234B015C01F6
:10105000F80166857785072E000C880B990B0E9496
:10106000C4239B01AC016BED7FE089EC90E40E940E
:101070001A239B01AC01C501B4010E9479244B01E4
:101080005C016D897E898F89988D0E94C4232FE52C
:1010900030E749E850E30E9479242B013C0169893B
:1010A0007A898B899C890E94C4239B01AC01C3016E
:1010B000B2010E94A9229B01AC01C501B4010E94AA
:1010C0001A23F801848A958AA68AB78A608F718F5D
:1010D000828F938F88E0FE013996D10101900D92A5
:1010E0008A95E1F7F801D38AC28A88E07496DE0116
:1010F000119601900D928A95E1F729813A814B81F1
:101100005C816D817E818F81988568960FB6F89499
:10111000DEBF0FBECDBFDF91CF911F910F91FF902A
:10112000EF90DF90CF90BF90AF909F908F907F9087
:101130006F905F904F903F902F900895F8944ACF12
:10114000CF92DF92EF92FF92DC011D921D921D92D1
:101150001C921397FB0130E020E0419150E0022EF9
:1011600002C0440F551F0A94E2F7052E000C660BCF
:10117000770BCD90DD90ED90FC9013974C295D2975
:101180006E297F294D935D936D937C931397285F10
:101190003F4F2032310509F7FF90EF90DF90CF905D
:1011A0000895FC01408351831282138208958BE5D8
:1011B00093E008958CE793E008958AE993E0089519
:1011C0008BEB93E008950F931F93FB010081118136
:1011D00022813381FC010283138324833583FB0145
:1011E0004481558166817781FC01468357836087FE
:1011F000718788E090E01F910F910895DC01FB0159
:1012000012964C91129713962C91139714969C91C9
:10121000149715968C91159740832183928383832D
:1012200016964C91169717962C91179718969C9195
:10123000189719968C91448325839683878388E039
:1012400090E0089582ED93E0089583EF93E0089590
:101250008BE094E008958CE294E008950F931F933F
:10126000CF93DF93EC01FB018A8180838B818183A3
:101270008C8182838D81838340E050E0BA0184E0D9
:1012800090E034960A811B812C813D8140175107E3
:1012900062077307C0F4AA85BB85A80FB91F14970E
:1012A0000C9111961C91119712963C9112971396DE
:1012B0002C9100831183328323834F5F5F4F6F4FE5
:1012C0007F4F0496DECFDF91CF911F910F9108954C
:1012D00002960C942E098CE494E008958DE694E037
:1012E000089584E894E0089585EA94E008954F9283
:1012F0005F926F927F928F929F92AF92BF92EF9286
:10130000FF920F931F93CF93DF9300D01F92CDB71F
:10131000DEB77C018B01FB01808190E0B0E0A0E0B2
:10132000F70182839383A483B583FB012181922BF0
:10133000F70182839383A483B583FB012281A22BCF
:10134000F70182839383A483B583FB012381B22BAE
:10135000F70182839383A483B583FB01848190E0AA
:10136000B0E0A0E0F70186839783A087B187FB01F7
:101370002581922BF70186839783A087B187FB0194
:101380002681A22BF70186839783A087B187FB0173
:101390002781B22BF70186839783A087B187FB0152
:1013A000808590E0B0E0A0E0F70182879387A48772
:1013B000B587FB012185922BF70182879387A4874C
:1013C000B587FB012285A22BF70182879387A4872B
:1013D000B587FB012385B22BF70182879387A4870A
:1013E000B587645F7F4FCE0101960E94A008898176
:1013F0009A81AB81BC814C015D01F0E18F0E911CA3
:10140000A11CB11CA801415F5F4FFA0120E130E04F
:101410002901712C612C481459046A047B0428F4B6
:10142000618161932F5F3F4FF3CFF801E80FF91F00
:101430001786F7015787468740960F900F900F90B9
:101440000F90DF91CF911F910F91FF90EF90BF9080
:10145000AF909F908F907F906F905F904F90089586
:10146000EF92FF920F931F93CF93DF937C01EB01D9
:1014700002960E9477098C01BE01680F791FC7018F
:1014800042960E94E308800F911FDF91CF911F9138
:101490000F91FF90EF90089585EB94E008958AE115
:1014A00092E0089586ED94E0089587EF94E0089522
:1014B0004F925F926F927F928F929F92AF92BF9264
:1014C000EF92FF920F931F93CF93DF9300D01F9261
:1014D000CDB7DEB77C018B01FB018191BF01F70124
:1014E0008283CE0101960E94A00889819A81AB81F6
:1014F000BC814C015D01F5E08F0E911CA11CB11C5B
:10150000A8014C5F5F4FFA0125E030E02901712C02
:10151000612C481459046A047B0428F461816193A6
:101520002F5F3F4FF3CFF801E80FF91F1482F70147
:101530005483438305960F900F900F900F90DF9187
:10154000CF911F910F91FF90EF90BF90AF909F9020
:101550008F907F906F905F904F9008958AE095E014
:1015600008958BE295E008954F925F926F927F927B
:101570008F929F92AF92BF92CF92DF92EF92FF92A3
:101580000F931F93CF93DF93CDB7DEB72C970FB692
:10159000F894DEBF0FBECDBF7C018B01DB018C91C7
:1015A00090E0F7019383828311962C91922B938381
:1015B00082836E5F7F4FCE0101960E94A0088980D2
:1015C0009A80AB80BC8024013501F6E04F0E511C9F
:1015D000611C711C98012B5F3F4FF90186E090E080
:1015E000AC0170E060E0441555056605770520F410
:1015F000418141930196F4CFB4016A5F7F4FF801B6
:10160000E80DF91D1582D70115963C932E9314977A
:10161000600F711FCE0105960E94A008BAE08B0EE4
:10162000911C4D805E806F807884C401092C000C71
:10163000AA0BBB0B5C016D01A40CB51CC61CD71C0E
:10164000F801E80DF91DAF01401B510B70E060E09F
:101650004A155B056C057D0538F42191AF014250B8
:101660005109DA012C93EFCF480C591CB801640DD5
:10167000751DFB0131971082C4010197800F911FE6
:10168000F70197838683CE0109960E94A0089201F4
:101690002C5F3F4F89849A84AB84BC84A901032EBC
:1016A000000C660B770B480D591D6A1D7B1DF80158
:1016B000E20FF31FCF01801B910BB0E0A0E0841775
:1016C0009507A607B70728F48191DF0112978C933D
:1016D000F1CFC901880D991DF801E80FF91FDF014D
:1016E00011971C9221503109020F131FD70119962F
:1016F0001C930E9318972181428150E070E060E0C6
:10170000BA0155274427522B2081422B2381722B6B
:10171000F701428753876487758704962C960FB626
:10172000F894DEBF0FBECDBFDF91CF911F910F9117
:10173000FF90EF90DF90CF90BF90AF909F908F90F1
:101740007F906F905F904F90089584E495E00895A6
:1017500085E695E00895FC01DB014C9150E070E0D6
:1017600060E0428353836483758311968C91119753
:10177000582B428353836483758312968C911297FE
:10178000682B428353836483758313968C911397DC
:10179000782B428353836483758314964C911497FA
:1017A00050E070E060E0468357836087718715964C
:1017B0008C911597582B46835783608771871696AF
:1017C0008C911697682B468357836087718717968D
:1017D0008C91782B468357836087718788E090E0EF
:1017E0000895DC01FB0112968C9112978083139669
:1017F0008C911397818314968C91149782831596FC
:101800008C911597838316968C91169784831796DF
:101810008C911797858318968C91189786831996C3
:101820008C91878388E090E00895CF92DF92EF92C9
:10183000FF920F931F93DC01FB0113960C911397FA
:1018400010E030E020E084E0369527951795079565
:101850008A95D1F714964C91149750E070E060E0AF
:1018600094E0440F551F661F771F9A95D1F7042BFC
:10187000152B262B372B15969C911597492F50E049
:1018800070E060E08CE0440F551F661F771F8A955B
:10189000D1F7042B152B262B372B1696CC901697A9
:1018A000D12CF12CE12CB701A60194E1440F551F76
:1018B000661F771F9A95D1F744275527607F7727B2
:1018C000402B512B622B732B17960C9180E1089FB4
:1018D00090011124207F3770D701C60114E0B6951E
:1018E000A795979587951A95D1F7822B932B8F3FC4
:1018F00027E0920709F454C08F3724E0920708F0DC
:1019000052C0813823E09207C4F1805893404F3F82
:101910002FEF52076207710509F04AC010E030E06E
:1019200020E0302F22271127002700271127222708
:1019300030787695679557954795402B512B622BBC
:10194000732B092E000CAA0BBB0B17E1880F991FF4
:10195000AA1FBB1F1A95D1F7842B952BA62BB72B4B
:1019600080839183A283B38388E090E01F910F91DD
:10197000FF90EF90DF90CF900895893623E0920793
:1019800064F0716021E833E0281B390B04C07695C0
:101990006795579547952A95D2F790E080E0B7CFA5
:1019A0008FEF90E0B4CF40E050E0BA018FEF90E0CD
:1019B0004F5F5F4F6F4F7F4FB1CF8F929F92AF922C
:1019C000BF92CF92DF92EF92FF921F93CF93DF935C
:1019D000EC016A017B01DB01CA0117E1B595A7950E
:1019E000979587951A95D1F799276F7777278F3F26
:1019F000910509F463C0009709F449C080589C4FD1
:101A0000188219821A82242F2295220F207E2B837E
:101A10004A015B0123E0B694A794979487942A9592
:101A2000D1F78C824A015B013BE0B694A79497946E
:101A300087943A95D1F78D82282F2295207FE3E174
:101A40007695679557954795EA95D1F7422B4E8342
:101A5000F4E095958795FA95E1F7182F1F7720E028
:101A600030E0A901C701B6010E94152387FD29C0F6
:101A70001F8388E090E0DF91CF911F91FF90EF905E
:101A8000DF90CF90BF90AF909F908F9008954115B9
:101A900051056105710509F4B3CF440F551F661F49
:101AA000771F80E893E067FD06C0440F551F661F4F
:101AB000771F0197F8CF6F777727A2CF8FEF97E047
:101AC0009FCF812F80688F83D4CFCF92DF92EF9208
:101AD000FF920F931F93CF93DF938C01EB01C8808C
:101AE000D980EA80FB80FC0182819381A481B58149
:101AF0008C159D05AE05BF0560F4B601660F771F16
:101B0000660F771F828593850E940B26F8019387C5
:101B10008287F801C282D382E482F582C12CD12C63
:101B2000760184E090E098012A5F3F4F2496F80107
:101B30004281538164817581C416D506E606F70695
:101B400030F5E9814A8150E070E060E0BA01552744
:101B500044275E2BE8814E2BEB817E2BF8014683D8
:101B6000578360877187AC0144505109A285B385C2
:101B7000A40FB51F44E0F90101900D924A95E1F7D9
:101B8000FFEFCF1ADF0AEF0AFF0A0496CFCFDF91EB
:101B9000CF911F910F91FF90EF90DF90CF9008951C
:101BA000EF92FF920F931F93CF93DF937C01EB0192
:101BB00002960E9477098C01BE01680F791FC70148
:101BC00044960E94650D800F911FDF91CF911F9168
:101BD0000F91FF90EF9008950F931F93CF93DF9392
:101BE0008C01EC012696CE010E94D00DD80196966C
:101BF000ED91FC91CE01DF91CF911F910F9119943E
:101C000002960C94650D2F923F924F925F926F92C5
:101C10007F928F929F92AF92BF92CF92DF92EF927C
:101C2000FF920F931F93CF93DF9300D000D01F92AA
:101C30001F92CDB7DEB78C016B0102960E94770927
:101C40007C01F601E80FF91F808191818280912C3F
:101C5000B12CA12C540199248824992A882A8381A3
:101C6000B82A24E0E20EF11CF80182899389A48944
:101C7000B58988159905AA05BB0560F4B401660FFE
:101C8000771F808D918D0E940B26D80159969C93C9
:101C90008E935897F801828A938AA48AB58A412C38
:101CA000512C32011801F6E12F0E311CF601EE0D18
:101CB000FF1DD80152964D915D916D917C91559784
:101CC000C70104967C01441655066606770608F09F
:101CD0004FC0BF01CE0101960E94A00889819A8160
:101CE000AB81BC818D839E83AF83B887A7010F2C06
:101CF000000C660B770B480F591F6A1F7B1FF601FC
:101D0000EE0DFF1D4F018C189D08B12CA12C8416DF
:101D10009506A606B70638F4B1909F012250310906
:101D2000D901BC92EFCF8D819E818E0D9F1DF60152
:101D3000E80FF91F31971082B1E0EB1AF108EC0CB3
:101D4000FD1CF801F78AE68A7C01C201880F991F01
:101D5000008CF18DE02DE80FF91FD1018D919C9140
:101D600091838083BFEF4B1A5B0A6B0A7B0A9ECF7D
:101D7000808191818280912CB12CA12C54019924D5
:101D80008824992A882A8381B82AF801828D938D24
:101D9000A48DB58D88159905AA05BB0570F4B4010D
:101DA000660F771F660F771F82A193A10E940B26F3
:101DB000D80193969C938E939297F801828E938E7E
:101DC000A48EB58EB12CA12C412C512C320148018E
:101DD000FEE18F0E911CF601EE0DFF1DD8015A9603
:101DE0004D915D916D917C915D9744165506660607
:101DF0007706D0F4B401CF010E94150CE80EF91E4D
:101E0000F801A2A1B3A1AA0DBB1D84E0F4010190C9
:101E10000D928A95E1F7FFEF4F1A5F0A6F0A7F0A6A
:101E200024E0A20EB11CD7CF808191818280912CB9
:101E3000B12CA12C540199248824992A882A8381C1
:101E4000B82A84E0E80EF11CF80184A195A1A6A1AE
:101E5000B7A188159905AA05BB0570F4B401660FF2
:101E6000771F660F771F84A595A50E940B26D801C2
:101E70009D969C938E939C97F80184A295A2A6A20E
:101E8000B7A2B12CA12C412C512C32014801F8E20F
:101E90008F0E911CF601EE0DFF1DD80194964D9109
:101EA0005D916D917C91979744165506660677066D
:101EB000D0F4B401CF010E94150CE80EF91EF80110
:101EC000A4A5B5A5AA0DBB1D84E0F40101900D9257
:101ED0008A95E1F7FFEF4F1A5F0A6F0A7F0A24E045
:101EE000A20EB11CD7CF808191818280912CB12C20
:101EF000A12C540199248824992A882A8381B82AFC
:101F000084E0E80EF11CF80186A597A5A0A9B1A967
:101F100088159905AA05BB0570F4B401660F771FF3
:101F2000660F771F86A997A90E940B26D801D7961E
:101F30009C938E93D697F80186A697A6A0AAB1AADD
:101F4000B12CA12C412C512C32014801F2E38F0E0F
:101F5000911CF80186A597A5A0A9B1A94816590614
:101F60006A067B06E0F4B401C6018E0D9F1D0E9437
:101F7000150CE80EF91EF801A6A9B7A9AA0DBB1DFC
:101F800084E0F40101900D928A95E1F7FFEF4F1A7A
:101F90005F0A6F0A7F0A24E0A20EB11CDACFC701E4
:101FA00028960FB6F894DEBF0FBECDBFDF91CF915C
:101FB0001F910F91FF90EF90DF90CF90BF90AF9067
:101FC0009F908F907F906F905F904F903F902F9059
:101FD00008952F923F924F925F926F927F928F92CD
:101FE0009F92AF92BF92CF92DF92EF92FF920F93A8
:101FF0001F93CF93DF93CDB7DEB72E970FB6F8942C
:10200000DEBF0FBECDBF8C016B01DB018D909D90BB
:10201000AD90BC90FC0182819381A481B58188152B
:102020009905AA05BB0570F4B401660F771F660F0A
:10203000771F828593850E940B26D8011B969C935F
:102040008E931A97F80182829382A482B582C60188
:1020500040E050E0BA01A4E0EA2EF12C98012A5F9A
:102060003F4FDC011596EC91159716964C901697FC
:10207000512C712C612C3201552444245E2A149673
:10208000EC9114974E2A1796EC917E2AD7011701EE
:10209000E4E02E0E311C71010496F80182809380D9
:1020A000A480B580481559056A057B05A8F44682C9
:1020B0005782608671861497A284B384AA0DBB1DD3
:1020C000E4E0BE2EF90101900D92BA94E1F74F5F62
:1020D0005F4F6F4F7F4FC5CF84859585A685B785A8
:1020E00084159505A605B70570F4B201660F771F34
:1020F000660F771F848995890E940B26D801559613
:102100009C938E935497F80144865586668677860D
:10211000C601820D931D412C512C32011C019801E6
:10212000205F3F4FDC0111966C91119712968C90B5
:102130001297912CB12CA12C540199248824962A11
:102140006C91862A13966C91B62AB4E0EB0EF11CC2
:10215000F8014485558566857785441655066606DB
:102160007706C0F4808A918AA28AB38ABC01621978
:102170007309A489B589A60FB71F64E0F90101901E
:102180000D926A95E1F7BFEF4B1A5B0A6B0A7B0A67
:102190000496C8CF86899789A08DB18D8815990539
:1021A000AA05BB0560F4B401660F771F848D958D79
:1021B0000E940B26D8015D969C938E935C97F80144
:1021C000868A978AA08EB18E412C512C320118013B
:1021D000FAE12F0E311CF80186899789A08DB18D07
:1021E000481659066A067B0608F05CC0B6016E0DFB
:1021F0007F1DCE0101960E94A00897012C5F3F4FE2
:102200003E872D8789809A80AB80BC80C901032ED0
:10221000000CAA0BBB0BAC01BD01480D591D6A1D7A
:102220007B1D49875A876B877C87F901EC0DFD1D63
:102230009F012C193D09B90190E080E029853A857C
:102240004B855C85621773078407950728F42191F5
:10225000DF0112972C93ECCFED84FE84E80CF91C7F
:10226000F601EE0DFF1D319710828D859E85019739
:102270008C0D9D1DD8015B969C938E935A97C2013D
:10228000880F991F5C96ED91FC91E80FF91FD10121
:102290008D919C9191838083BFEF4B1A5B0A6B0AEF
:1022A0007B0A99CFC7012E960FB6F894DEBF0FBEFA
:1022B000CDBFDF91CF911F910F91FF90EF90DF90F5
:1022C000CF90BF90AF909F908F907F906F905F90D6
:1022D0004F903F902F9008952F923F924F925F9290
:1022E0006F927F928F929F92AF92BF92CF92DF9226
:1022F000EF92FF920F931F93CF93DF93CDB7DEB78B
:10230000A6970FB6F894DEBF0FBECDBF8C010E941A
:10231000A8034B015C01980125573B4F3E8B2D8B49
:10232000F90180819181A281B38175016401C81A8C
:10233000D90AEA0AFB0AD701C601893F9A42A105D8
:10234000B10510F035971082180134E8231A3BEFDD
:10235000330AD1018D919C91892B79F0F801E157D5
:10236000FB4F80819181A281B38188159905AA05CF
:10237000BB0518F4F1011182108298012C573B4FD4
:102380003A8B298BA80140585B4F5C8B4B8BC80163
:102390004896988F8F8BD801AA57BB4FBC8FAB8FB5
:1023A000F801EC56FB4FFE8FED8F215F3F4F38A3B6
:1023B0002F8F42505109588B4F8786599B4F9A8FC8
:1023C000898F1996BAA3A9A3A50194012C5E3F4F4A
:1023D0004F4F5F4F2BA33CA34DA35EA3F80184890D
:1023E0009589A689B789892B8A2B8B2BB9F5D801BA
:1023F00012968D919C91DC01ED91FC910284F38504
:10240000E02D19959C0197FF3DC0F801EA57FB4F5D
:102410008081882301F17801B9E7EB1ABBEFFB0A51
:10242000F70180819181A281B381A5019401281BCC
:10243000390B4A0B5B0BDA01C901853C9940A105B8
:10244000B10548F0C8010E940907D7018D929D92FD
:10245000AD92BC92139790E080E0B6C10E94A803B1
:10246000681979098A099B09F801C488D588E68822
:10247000F788C616D706E806F90608F0B8CF8EEF3B
:102480009FEFA2C1A989BA898D919C911197820F62
:10249000931F8D939C93F1014081518147305105E9
:1024A000F9F4A98DBA8D8D919C911197AC014F5F74
:1024B0005F4F4D935C93800F911FFC01208FAF8580
:1024C000B8898D919C91119701978D939C93892B3D
:1024D00009F084CF88E090E0F101918380837ECF82
:1024E0004115510521F52F3F310581F481E090E040
:1024F00091838083CBA0DCA0EDA0FEA0A9A1BAA10E
:10250000CD92DD92ED92FC92139768CF0E94A803C2
:10251000681979098A099B09693873418105910510
:1025200008F45CCFF801EA57FB4F1082A8CF413086
:10253000510589F42E3F310519F482E090E0CCCFAB
:1025400011821082EB8DFC8D8081811147CFC801F3
:102550000E94090743CF4230510591F4AF85B889F5
:102560002D933C93E98DFA8D1182108283E090E0E7
:10257000D1018D939C93E989FA89318320832ECFF1
:102580004330510571F4322F2227AF85B8898D91E0
:102590009C911197280F391F2D933C9384E090E074
:1025A0009BCF4430510579F460E071E00E943C22F9
:1025B0008F3F910529F485E090E0918380830ECFD1
:1025C000118210820BCF4530510569F4AB89BC896B
:1025D0002D933C9386E090E091838083A989BA890A
:1025E0002D933C93FBCE46305105A1F4322F222788
:1025F000EB89FC8980819181280F391F31832083E9
:1026000087E090E0D1018D939C93EF85F8898081DC
:1026100091815DCF4830510509F0E0CE11821082E2
:1026200060E071E00E943C228F3F910509F0D6CE18
:10263000AB89BC89ED91FC91309709F0DEC0C801EF
:102640000E9409078AE392E09A8389831C821B8295
:102650008AE593E09E838D8398878F839A87898705
:102660001B861C861D861E866801B8EECB1ABBEF42
:10267000DB0A7801E6EBEE1AEBEFFE0A412C22E0D2
:10268000522E612C712CD601ED91FC913097A9F15D
:10269000848195819C838B83808191819E838D83AE
:1026A00082819381DC01ED91FC910480F581E02D24
:1026B000199598878F83D601ED91FC918281938142
:1026C000DC01ED91FC910680F781E02D19959A8748
:1026D00089874B865C866D867E86D601ED91FC915E
:1026E00060857185D801ED91FC910190F081E02D1C
:1026F000AE014F5F5F4FC8011995B2E0CB0ED11C00
:10270000EC14FD0409F0BFCF412C92E0592E612C4E
:10271000712CF701A081B1811097E1F112968D9192
:102720009C9113979C838B8314968D919C91159704
:102730009E838D83ED91FC9111970480F581E02DAE
:10274000CD01199598878F83D7018D919C91DC01DC
:10275000ED91FC910680F781E02D19959A87898784
:102760004B865C866D867E86D801ED91FC91C0809B
:10277000D180F70180819181DC01ED91FC91028093
:10278000F381E02D1995AE014F5F5F4FBC01C80189
:10279000F6011995F2E0EF0EF11CE214F30409F0D2
:1027A000B8CFF801EA57FB4F81E0808331968082F1
:1027B0009182A282B382AD89BE898D929D92AD92A3
:1027C000BC9213978FEF9FEFA6960FB6F894DEBFDB
:1027D0000FBECDBFDF91CF911F910F91FF90EF9072
:1027E000DF90CF90BF90AF909F908F907F906F9031
:1027F0005F904F903F902F900895EA30F10509F0D7
:10280000A1C086E492E09A8389831B821C821D8288
:102810001E821F82188619861A860E94A803F80154
:10282000C084D184E284F3849B01AC012C193D095E
:102830004E095F0969017A016F89788DCE01019691
:102840000E94AB0BC701B60128EE33E040E050E038
:102850000E94502269017A019B01AC018B819C810D
:10286000AD81BE818C0D9D1DAE1DBF1D8B839C83D4
:10287000AD83BE8360E472E48FE090E00E942C227E
:10288000CF80D884E984FA84DC01CB018C0D9D1DB6
:10289000AE1DBF1D8F839887A987BA870E94A803A2
:1028A000CF80D884E984FA8436E3D31A35E6E30A84
:1028B00034ECF30A28EE33E040E050E00E9450226E
:1028C00029013A019B01AC0160E472E48FE090E0E1
:1028D0000E942C22A7019601261B370B480B590B8F
:1028E000CA01B9012B813C814D815E8121503109A2
:1028F0004109510969017A01C418D508E608F708A9
:102900002601370120E03AEC4AE95BE30E945022BD
:10291000420E531E641E751ED8011C964D925D9288
:102920006D927C921F97F801608B718B828B938BD9
:102930000E94A803AD89BE896D937D938D939C936E
:1029400013974CCDE630F10559F46F89788D8D8D54
:102950009E8D0E94E90F81E0EF8DF8A180833ECD2E
:10296000EB30F10521F4AB8DBC8D1C9237CDEF53CC
:10297000FE4FEE0FFF1FE00FF11F80819181009746
:1029800009F42CCDDC01ED91FC910190F081E02D5A
:102990006F89788D199522CDEF92FF920F931F9337
:1029A000CF93DF938C01EB01FC01828188838381CB
:1029B000898384818A8385818B8386818C838781C7
:1029C0008D8380858E8381858F83828588878385AB
:1029D000898784858A8785858B87A685B785FD014C
:1029E00001900020E9F731977F01EA1AFB0AA7015D
:1029F00070E060E0CE010C960E94D108F801668577
:102A00007785A701CE0140960E94EC26C70140962B
:102A1000DF91CF911F910F91FF90EF900895EF926A
:102A2000FF920F931F93CF93DF937C01EB010296EC
:102A30000E94CC148C01BE01680F791FC701429619
:102A40000E94FE08800F911FDF91CF911F910F917F
:102A5000FF90EF900895EF92FF920F931F93CF9303
:102A6000DF937C01EB0102960E94CC148C01BE0125
:102A7000680F791FC70144960E942E09800F911F8D
:102A8000DF91CF911F910F91FF90EF9008954F929A
:102A90005F926F927F928F929F92AF92BF92CF92EE
:102AA000DF92EF92FF920F931F93CF93DF93EC018E
:102AB0006B0102960E94CC148C01F601E80FF91FFD
:102AC0008A8980838B8981838C8982838D898383A2
:102AD0000C5F1F4F412C512C3201F601E00FF11F0A
:102AE0000C5F1F4F4601800E911E8A899B89AC891D
:102AF000BD89481659066A067B0650F55201AA0C94
:102B0000BB1CA88DB98DAA0DBB1D8D919C91DC01BC
:102B10000D900020E9F711977D01E81AF90AA70145
:102B200070E060E0CF010E94D108888D998DA80ED9
:102B3000B91EF50160817181A701C4010E94EC26D4
:102B40000E0D1F1DFFEF4F1A5F0A6F0A7F0AC5CFD8
:102B50008A8D80838B8D81838C8D82838D8D838301
:102B6000F12CE12C812C912C5401F601E00FF11F86
:102B70008A8D9B8DAC8DBD8D88169906AA06BB06E5
:102B8000B0F4AAA1BBA1AE0DBF1D4D915D916D9199
:102B90007C91CF010E94DD0C080F191F8FEF881A5E
:102BA000980AA80AB80AE4E0EE0EF11CDECF8CA168
:102BB00080838DA181838EA182838FA183830C5F0B
:102BC0001F4FF12CE12C812C912C5401F601E00FC8
:102BD000F11F8CA19DA1AEA1BFA188169906AA06DE
:102BE000BB06B0F4ACA5BDA5AE0DBF1D4D915D916A
:102BF0006D917C91CF010E94DD0C080F191FFFEF32
:102C00008F1A9F0AAF0ABF0A84E0E80EF11CDECFDC
:102C10008EA580838FA5818388A9828389A98383D8
:102C20000C5F1F4FF12CE12C812C912C54018EA5AF
:102C30009FA5A8A9B9A988169906AA06BB06C0F43B
:102C4000EEA9FFA9EE0DFF1D4081518162817381C4
:102C5000C601800F911F0E94DD0C080F191FEFEFB6
:102C60008E1A9E0AAE0ABE0AF4E0EF0EF11CDFCF08
:102C7000C801DF91CF911F910F91FF90EF90DF90EE
:102C8000CF90BF90AF909F908F907F906F905F900C
:102C90004F9008954F925F926F927F928F929F9282
:102CA000AF92BF92CF92DF92EF92FF920F931F935A
:102CB000CF93DF93EC017B018A81FB0180838B81C1
:102CC00081838C8182838D8183833496412C512C26
:102CD000320104E010E09F012F5F3F4FCF010296C9
:102CE000DF011396A8010C5F1F4F8A809B80AC8088
:102CF000BD80481459046A047B04C8F4AA85BB85C6
:102D0000A40FB51F14974C9111962C911197129600
:102D10009C91129713968C91408321839283838395
:102D20008FEF481A580A680A780A3496D4CF4C852F
:102D300040834D85F90140832E85FC0120838F85DA
:102D40008C93F701E00FF11F412C512C3201AF01A0
:102D50009F012F5F3F4FCF010296DF0113960C5F5B
:102D60001F4F8C849D84AE84BF84481459046A0428
:102D70007B04D8F4CF01841B950BAC89BD89A80FC7
:102D8000B91F3C9111962C91119712969C91129714
:102D900013968C9130832183928383838FEF481A1B
:102DA000580A680A780A3496D3CF4E8940834F89EF
:102DB000F9014083288DFC012083898D8C93412C5F
:102DC000512C32018E899F89A88DB98D48165906DC
:102DD0006A067B0680F55201AA0CBB1CEC8DFD8DAA
:102DE000EA0DFB1DA081B181FD0101900020E9F7F2
:102DF00031976F01CA1ADB0AA60170E060E0C701D3
:102E0000800F911F0E94D1080C5F1F4F8C8D9D8DEC
:102E1000A80EB91EF50160817181A601C701800F5E
:102E2000911F0E94EC260C0D1D1DFFEF4F1A5F0A2B
:102E30006F0A7F0AC7CFC801DF91CF911F910F9111
:102E4000FF90EF90DF90CF90BF90AF909F908F90CA
:102E50007F906F905F904F900895EF92FF920F9345
:102E60001F93CF93DF938C017B01DC0112962C9191
:102E70001297FB012193CF011396ED91FC91EF0185
:102E800009900020E9F72197CE1BDF0BAE0170E01F
:102E900060E00E94D108D80113966D917C91AE013B
:102EA000C70105960E94EC26CE010596DF91CF91D1
:102EB0001F910F91FF90EF900895CF92DF92EF92C4
:102EC000FF920F931F93CF93DF936C01EB01DC0113
:102ED00012968C911297888313968C9113978983FD
:102EE0001496ED91FC91DF010D900020E9F78D0122
:102EF000015011090E1B1F0BA80170E060E0CE010C
:102F000002960E94D108F60164817581A801CE0164
:102F100006960E94EC26C8010696F601A681B781A6
:102F2000FD0101900020E9F731977F01EA1AFB0AC1
:102F3000A70170E060E08C0F9D1F0E94D108065F22
:102F40001F4FD60116966D917C91A701CE01800F7F
:102F5000911F0E94EC260E0D1F1DF601A085B18564
:102F6000FD0101900020E9F731977F01EA1AFB0A81
:102F7000A70170E060E0CE01800F911F0E94D10890
:102F80000C5F1F4FD60118966D917C91A701CE0161
:102F9000800F911F0E94EC26C701800F911FF60140
:102FA0006285438534852585C80FD91F6883498389
:102FB0003A832B830496DF91CF911F910F91FF905D
:102FC000EF90DF90CF9008951F920F920FB60F925F
:102FD00011242F933F938F939F93AF93BF9380912F
:102FE000130690911406A0911506B0911606309123
:102FF000120623E0230F2D3758F50196A11DB11DB0
:10300000209312068093130690931406A09315063E
:10301000B093160680910E0690910F06A0911006AF
:10302000B09111060196A11DB11D80930E069093DB
:103030000F06A0931006B0931106BF91AF919F9118
:103040008F913F912F910F900FBE0F901F90189569
:1030500026E8230F0296A11DB11DD2CF1F920F9219
:103060000FB60F9211240BB60F922F933F934F93ED
:103070005F936F937F938F939F93AF93BF93EF93E0
:10308000FF93E0910E02F0910F021995FF91EF91DD
:10309000BF91AF919F918F917F916F915F914F9170
:1030A0003F912F910F900BBE0F900FBE0F901F906E
:1030B00018951F920F920FB60F9211240BB60F9214
:1030C0002F933F934F935F936F937F938F939F9330
:1030D000AF93BF93EF93FF93E0910C02F0910D0239
:1030E0001995FF91EF91BF91AF919F918F917F9132
:1030F0006F915F914F913F912F910F900BBE0F9069
:103100000FBE0F901F9018951F920F920FB60F923F
:1031100011240BB60F922F933F934F935F936F93AE
:103120007F938F939F93AF93BF93EF93FF93E09120
:103130000202F09103021995FF91EF91BF91AF91B7
:103140009F918F917F916F915F914F913F912F91BF
:103150000F900BBE0F900FBE0F901F9018951F92EF
:103160000F920FB60F9211240BB60F922F933F932D
:103170004F935F936F937F938F939F93AF93BF937F
:10318000EF93FF93E0910002F09101021995FF91F6
:10319000EF91BF91AF919F918F917F916F915F91CF
:1031A0004F913F912F910F900BBE0F900FBE0F903C
:1031B0001F9018951F920F920FB60F9211240BB605
:1031C0000F922F933F934F935F936F937F938F93C0
:1031D0009F93AF93BF93EF93FF93E0910A02F09117
:1031E0000B021995FF91EF91BF91AF919F918F9134
:1031F0007F916F915F914F913F912F910F900BBEF7
:103200000F900FBE0F901F9018951F920F920FB640
:103210000F9211240BB60F922F933F934F935F930E
:103220006F937F938F939F93AF93BF93EF93FF938E
:10323000E0910802F09109021995FF91EF91BF9179
:10324000AF919F918F917F916F915F914F913F913E
:103250002F910F900BBE0F900FBE0F901F901895DF
:103260001F920F920FB60F9211240BB60F922F934D
:103270003F934F935F936F937F938F939F93AF93FE
:10328000BF93EF93FF93E0910602F0910702199527
:10329000FF91EF91BF91AF919F918F917F916F912E
:1032A0005F914F913F912F910F900BBE0F900FBEEA
:1032B0000F901F9018951F920F920FB60F92112426
:1032C0000BB60F922F933F934F935F936F937F9320
:1032D0008F939F93AF93BF93EF93FF93E09104027B
:1032E000F09105021995FF91EF91BF91AF919F91D8
:1032F0008F917F916F915F914F913F912F910F909F
:103300000BBE0F900FBE0F901F9018951F920F923B
:103310000FB60F9211240BB60F922F933F934F933A
:103320005F936F937F938F939F93AF93BF93EF932D
:10333000FF9387E196E00E942904FF91EF91BF91EE
:10334000AF919F918F917F916F915F914F913F913D
:103350002F910F900BBE0F900FBE0F901F901895DE
:103360001F920F920FB60F9211240BB60F922F934C
:103370008F939F93EF93FF93E0912706F091280698
:103380008081E0912D06F0912E0682FD1DC0908176
:10339000809130068F5F8F7320913106821741F044
:1033A000E0913006F0E0E95EF94F958F80933006AA
:1033B000FF91EF919F918F912F910F900BBE0F90E6
:1033C0000FBE0F901F9018958081F2CF823109F4C3
:1033D00068C030F48230E1F0833069F180E0089514
:1033E0008431D9F108F44BC08531C1F77093EF05F2
:1033F0006093EE0580EF95E09093050280930402C0
:10340000809169008C7F816080936900E89A11C087
:103410007093EB056093EA058CEF95E090930102C1
:103420008093000280916A008C7F816080936A00A3
:10343000EC9A81E008957093ED056093EC0586EFBA
:1034400095E0909303028093020280916A00837F4B
:10345000846080936A00ED9AECCF7093F1056093DD
:10346000F0058AEE95E09093070280930602809122
:103470006900837F846080936900E99ADACF709352
:10348000F3056093F20584EE95E090930902809332
:103490000802809169008F7C806180936900EA9ABC
:1034A000C8CF7093F5056093F4058EED95E0909389
:1034B0000B0280930A02809169008F73806480936D
:1034C0006900EB9AB6CF2F923F924F925F926F9224
:1034D0007F928F929F92AF92BF92CF92DF92EF92A4
:1034E000FF920F931F93CF93DF93E7E1F6E01382F0
:1034F000128288EE93E0A0E0B0E084839583A683F7
:10350000B7838EE592E09183808385EC90E0958788
:10351000848784EC90E09787868780EC90E0918B9D
:10352000808B81EC90E0938B828B82EC90E0958B8A
:10353000848B86EC90E0978B868B118E128E138E87
:10354000148EAEEFB7E080ED92E011969C938E93CF
:103550001396FC93EE93129740E051EE60E070E01A
:1035600014964D935D936D937C93179718961D92C7
:103570001D921D921C921B971C961D921D921D92CE
:103580001C921F9750961D921D921D921C9253974C
:1035900054961D921D921D921C92579780E092E0C6
:1035A000E6E1F8E0DF019C011D9221503040E1F797
:1035B000E6E1FAE0DF019C011D9221503040E1F785
:1035C00082E3E6E1FCE0DF01282F1D922A95E9F76E
:1035D000E8E4FCE0DF011D928A95E9F710927B0C8C
:1035E00010927A0C10927D0C10927C0C10927F0C31
:1035F00010927E0C1092810C1092800C1092830C11
:103600001092820C1092840C1092850C1092860CF1
:103610001092870C1092880C1092890C10928A0CD0
:1036200010928B0C10928C0C10928D0C10928E0CB0
:1036300010928F0C1092900C1092910C84EC92E0EE
:103640009093930C8093920C1092940C1092950C82
:103650001092960C1092970C1092980C1092990C54
:1036600010929A0C10929B0C10929D0C10929C0C34
:1036700010929E0C10929F0C1092A00C1092A10C14
:103680001092A20C1092A30C1092A40C1092A50CF4
:103690001092A70C1092A60C1092A80C1092A90CD4
:1036A0001092AA0C1092AB0C1092AD0C1092AC0CB4
:1036B0001092AF0C1092AE0CE6ECF7E088EB92E0C3
:1036C000918380838CEA282E82E0382E33822282F6
:1036D000148215821682178210861186128613862E
:1036E00014861586168617860AE513E0118B008B63
:1036F000128A138A148A158A178A168A118E108ED6
:10370000128E138E148E158E168E178E10A211A285
:1037100013A212A214A215A216A217A210A611A6F5
:1037200012A613A615A614A616A617A610AA11AAC5
:1037300012AA13AA14AA15AA17AA16AAACEBB7E0E4
:1037400083E795E011969C938E931396FC93EE93EA
:10375000129719961C921E92189744E150E065E169
:1037600070E088E997E00E94210541E150E062E1C4
:1037700070E084E797E00E942105E8E5F7E080EA41
:1037800092E0918380833382228214821582168292
:103790001782108611861286138614861586168661
:1037A0001786118B008B84E992E0938B828B148AAD
:1037B000158A168A178A108E118E128E138EAEE419
:1037C000B7E087E995E011969C938E931396FC934E
:1037D000EE93129719961C921E921897C2E4D7E0A6
:1037E0008CE088838BE089838AE08A83B4E6BB839C
:1037F000198621E028871C821D821E821F828FEF7E
:103800009FEF9B878A8761E08CE00E94880261E0DD
:1038100089810E94880261E08A810E948802EEE12B
:10382000F7E0412C512C9FE7692E93EC792E4082D2
:10383000518262827382812C912C2FE7A22E23E485
:10384000B22E84829582A682B782C12CD12C30E719
:10385000E32E31E4F32EC086D186E286F38680E043
:1038600090E0ACE8B2E484879587A687B78780E0CC
:1038700090E0A0E0BFE3808B918BA28BB38BC2E181
:10388000D7E086E0888384E0898385E08A8394E6B4
:103890009B831986A1E0A8871C821D821E821F823D
:1038A0002FEF3FEF3B872A8761E086E00E94880286
:1038B00061E089810E94880261E08A810E94880219
:1038C000EEEEF6E0408251826282738284829582BB
:1038D000A682B782C086D186E286F38680E090E039
:1038E000ACE8B2E484879587A687B78780E090E04C
:1038F000A0E0BFE3808B918BA28BB38BE4ECF6E06E
:103900008AED92E09183808388E892E097838683B2
:1039100031862086128613861486158616861786AB
:10392000108A118A128A138A148A158A178B068BB9
:103930008CE792E0918F808F80E792E0938F828F67
:10394000148E158E168E178E10A211A212A213A21B
:1039500015A214A28AE997E097A386A381E090E0DC
:1039600091A780A784EB95E0958384838EEF97E001
:103970000E943F07ECEBF6E02083318342835383C0
:103980006483758386839783E4EBF6E0108211826B
:10399000128213821482158216821782DF91CF91D0
:1039A0001F910F91FF90EF90DF90CF90BF90AF905D
:1039B0009F908F907F906F905F904F903F902F904F
:1039C0000895CF93DF93CDB7DEB7EC970FB6F89499
:1039D000DEBF0FBECDBF789484B5826084BD84B550
:1039E000816084BD85B5826085BD85B5816085BDFA
:1039F00080916E00816080936E00109281008091B2
:103A00008100826080938100809181008160809339
:103A10008100809180008160809380008091B1005E
:103A200084608093B1008091B00081608093B00089
:103A300080919100826080939100809191008160DB
:103A4000809391008091900081608093900080919C
:103A5000A10082608093A1008091A1008160809389
:103A6000A1008091A00081608093A000809121013D
:103A700082608093210180912101816080932101E6
:103A80008091200181608093200180917A00846080
:103A900080937A0080917A00826080937A0080918E
:103AA0007A00816080937A0080917A0080688093A8
:103AB0007A001092C100F8941092A1071092A20708
:103AC0001092A3071092A4077894F89410927D079F
:103AD00010927E0710927F0710928007789488E0FA
:103AE00090E00E94E6249093E9078093E80752E073
:103AF000C52ED12CE12CF12CC092E007D092E10729
:103B0000E092E207F092E307DC011D921D921D9204
:103B10001C921397FC01148215821682178288E08A
:103B200090E00E94E6249093F3078093F207C092FE
:103B3000EA07D092EB07E092EC07F092ED07C09213
:103B4000D807D092D907E092DA07F092DB0788E035
:103B500090E00E94E6249093FD078093FC07C092BA
:103B6000F407D092F507E092F607F092F70706E126
:103B70001CE0F80190E080E021913191232B09F0C5
:103B800055C4FC01EE0FFF1FEA5EF34F2CEB37E04C
:103B90003183208383589F4F9093C1078093C00740
:103BA0008EEF97E09093C3078093C20782E497E07B
:103BB0000E94900382E197E00E94900380E092ECE3
:103BC000A1E0B0E08093020890930308A09304085A
:103BD000B0930508E0910008F0910108A089B1892F
:103BE00082E08C93A485B5851C92A685B78580E17B
:103BF0008C93108EA489B58986E08C93A289B389B1
:103C00008C9180618C93A289B3898C9188608C930C
:103C1000A289B3898C9180688C930288F389E02D06
:103C200080818F7D808310927B0C10927A0C109291
:103C30007D0C10927C0C1092810C1092800C1092D2
:103C40007F0C10927E0C90E080E0D8012D913D9188
:103C50008D01232B09F0F0C3FC01EE0FFF1FEA5E7C
:103C6000F34F2EE437E03183208383589F4F9093A6
:103C70005307809352078EEF97E0909355078093F8
:103C80005407E8E4FCE090E080E021913191232B9F
:103C900009F0D8C3FC01EE0FFF1FE85BF34F24ECE3
:103CA00036E0318320838C599F4F9093C7068093D1
:103CB000C6068091A507823008F0CAC3F8948AE945
:103CC00097E00E949C058091A1079091A207A09186
:103CD000A307B091A4078DAB9EABAFABB8AF789400
:103CE00080918107823008F0B5C3F89486E797E0A9
:103CF0000E949C0580917D0790917E07A0917F078F
:103D0000B091800789AF9AAFABAFBCAF78948EEF1C
:103D100097E00E943F0729A33AA34BA35CA36DA39E
:103D20007EA38FA398A76CEB76E0CE0181960E94CC
:103D30000206298F3A8F4B8F5C8F6D8F7E8F8F8F0E
:103D400098A364EB76E0CE0181960E940206298B4F
:103D50003A8B4B8B5C8B6D8B7E8B8F8B988F6D89A9
:103D60007E898F89988D0E94C4232FE530E749E82A
:103D700050E30E9479246B017C0169897A898B89DF
:103D80009C890E94C4239B01AC01C701B6010E941B
:103D9000A92220E030E040E450E40E947424181688
:103DA00084F410920A0610920B0610920C061092E0
:103DB0000D06109206061092070610920806109241
:103DC00009066D8D7E8D8F8D98A10E94C4232FE5ED
:103DD00030E749E850E30E9479246B017C01698D4A
:103DE0007A8D8B8D9C8D0E94C4239B01AC01C701F1
:103DF000B6010E94A92269A77AA78BA79CA72DECE0
:103E00003CEC4CE45DE30E94742487FD08C388E920
:103E100097E00E94C50729873A874B875C876D87A3
:103E20007E878F87988BCD84DE84EF84F88884E743
:103E300097E00E94C50729833A834B835C836D8397
:103E40007E838F8398874D805E806F807884009119
:103E5000E8071091E90729853A854B855C85D801EB
:103E60006D917D918D919C910E94A922F8016083B2
:103E70007183828393832EEA37E441E65FE36091A6
:103E800002067091030680910406909105060E9437
:103E900079244B015C012FE832EC45E75DE3C70173
:103EA000B6010E9479249B01AC01C501B4010E94B6
:103EB000A9224B015C012FE832EC45E75DE36091FC
:103EC000FE057091FF0580910006909101060E9409
:103ED00079249B01AC01C501B4010E94A9224B01C8
:103EE0005C018092020690920306A0920406B092B2
:103EF0000506C092FE05D092FF05E0920006F09202
:103F000001062090F2073090F307D1018D929D9227
:103F1000AD92BC92139729813A814B815C81F80163
:103F200064817581868197810E94A922D8011496A7
:103F30006D937D938D939C9317972EEA37E441E61A
:103F40005FE36091FA057091FB058091FC0590910B
:103F5000FD050E9479246B017C012FE832EC45E7D6
:103F60005DE3C301B2010E9479249B01AC01C7014A
:103F7000B6010E94A9226B017C012FE832EC45E7D3
:103F80005DE36091F6057091F7058091F8059091D9
:103F9000F9050E9479249B01AC01C701B6010E947A
:103FA000A9226DA77EA78FA798AB6093FA0570939F
:103FB000FB058093FC059093FD054092F605509219
:103FC000F7056092F8057092F905DC01CB01F1016B
:103FD00084839583A683B783C0900A06D0900B068E
:103FE000E0900C06F0900D06A5019401C701B60102
:103FF0000E94A8224B015C01809232079092330705
:10400000A0923407B0923507AC019B0169A57AA54F
:104010008BA59CA50E9479249B01AC016091360779
:104020007091370780913807909139070E94A92233
:10403000609336077093370780933807909339075A
:1040400020913E0730913F07409140075091410732
:10405000C501B4010E94A82229A53AA54BA55CA5DB
:104060000E941A232B013C0140923A0750923B07D1
:1040700060923C0770923D0720E030E0A901C70143
:10408000B6010E941523811111C020E030E0A90182
:10409000C501B4010E941523811108C01092360792
:1040A000109237071092380710923907209136077F
:1040B00030913707409138075091390760912A07AE
:1040C00070912B0780912C0790912D070E947924E5
:1040D0006B017C012091260730912707409128072A
:1040E00050912907C501B4010E9479249B01AC01BC
:1040F000C701B6010E94A9226B017C0120912E0705
:1041000030912F074091300750913107C301B20120
:104110000E9479249B01AC01C701B6010E94A9222B
:104120003B016C0180923E0790923F07A0924007AE
:10413000B0924107F0901E0700911F0710912007D1
:10414000E09021072F2D302F412F5E2D0E94152347
:1041500087FD16C0F09022070091230710912407D5
:10416000E09025072F2D302F412F5E2DB301C60182
:104170000E947424181624F0F62C072D1C2DED2C0B
:104180006F2D702F812F9E2D0E948C2382E497E04B
:104190000E94E9048091060690910706A091080606
:1041A000B091090689AB9AABABABBCAB2DA53EA5D4
:1041B0004FA558A9BC01CD010E94A8224B015C016A
:1041C0008092020790920307A0920407B09205071D
:1041D000AC019B0169A57AA58BA59CA50E947924B9
:1041E0009B01AC0160910607709107078091080759
:1041F000909109070E94A922609306077093070710
:10420000809308079093090720910E0730910F07BC
:104210004091100750911107C501B4010E94A822D6
:1042200029A53AA54BA55CA50E941A232B013C01A8
:1042300040920A0750920B0760920C0770920D078C
:1042400020E030E0A90169A97AA98BA99CA90E9464
:104250001523811111C020E030E0A901C501B4018E
:104260000E941523811108C01092060710920707BB
:10427000109208071092090720910607309107074E
:1042800040910807509109076091FA067091FB066A
:104290008091FC069091FD060E94792469A77AA777
:1042A0008BA79CA72091F6063091F7064091F8065F
:1042B0005091F906C501B4010E9479249B01AC011B
:1042C00069A57AA58BA59CA50E94A92269A77AA7B2
:1042D0008BA79CA72091FE063091FF064091000716
:1042E00050910107C301B2010E9479249B01AC01E6
:1042F00069A57AA58BA59CA50E94A9223B016C010A
:1043000080920E0790920F07A0921007B0921107AB
:104310008090EE069090EF06A090F006B090F10627
:104320009401A5010E94152387FD12C08090F2061A
:104330009090F306A090F406B090F5069401A501C4
:10434000B301C6010E947424181614F043015601EB
:10435000B401C5010E948C2382E197E00E94E90428
:10436000A0E1B2E0B093DF07A093DE07E091FC0785
:10437000F091FD078F2D902FA12FBE2D808391836B
:10438000A283B383C401D50184839583A683B783B5
:10439000EDA9FEA9CF01FF0FAA0BBB0B80936C0701
:1043A00090936D07A0936E07B0936F0729AD3AAD58
:1043B000C901330FAA0BBB0B809370079093710751
:1043C000A0937207B093730780915407909155079B
:1043D0006091520770915307DC01ED91FC910190BF
:1043E000F081E02D48E557E019958091C207909142
:1043F000C3076091C0077091C107DC01ED91FC918A
:104400000190F081E02D46EC57E0199588E0FE011F
:10441000B196ACEBB6E001900D928A95E1F78EEF84
:1044200097E00E946C110E94B80443CC0196893138
:10443000910509F0A1CBBACB01968931910509F01C
:1044400004CC1FCC01968931910509F01ECC31CCEA
:10445000F89439CCF8944ECCDB018F939F930E9453
:104460007A22BF91AF91A29F800D911DA39F900DC5
:10447000B29F900D1124089597FB072E16F4009417
:1044800007D077FD09D00E94852207FC05D03EF4B5
:10449000909581959F4F0895709561957F4F0895F0
:1044A000A1E21A2EAA1BBB1BFD010DC0AA1FBB1F38
:1044B000EE1FFF1FA217B307E407F50720F0A21BAA
:1044C000B30BE40BF50B661F771F881F991F1A9417
:1044D00069F760957095809590959B01AC01BD0141
:1044E000CF010895EE0FFF1F881F8BBF0790F69135
:1044F000E02D19940E949922A59F900DB49F900DD4
:10450000A49F800D911D11240895AA1BBB1B51E18E
:1045100007C0AA1FBB1FA617B70710F0A61BB70B33
:10452000881F991F5A95A9F780959095BC01CD01D8
:104530000895A29FB001B39FC001A39F700D811D7C
:104540001124911DB29F700D811D1124911D08959C
:104550005058BB27AA270E94C0220C943A240E94DC
:104560002C2438F00E94332420F039F49F3F19F4B2
:1045700026F40C9429240EF4E095E7FB0C942324F4
:10458000E92F0E944B2458F3BA1762077307840778
:10459000950720F079F4A6F50C946D240EF4E095BF
:1045A0000B2EBA2FA02D0B01B90190010C01CA01ED
:1045B000A0011124FF27591B99F0593F50F4503E98
:1045C00068F11A16F040A22F232F342F4427585F8A
:1045D000F3CF469537952795A795F0405395C9F7A2
:1045E0007EF41F16BA0B620B730B840BBAF091505A
:1045F000A1F0FF0FBB1F661F771F881FC2F70EC0F9
:10460000BA0F621F731F841F48F4879577956795CB
:10461000B795F7959E3F08F0B0CF9395880F08F0B7
:104620009927EE0F9795879508950E94FF2308F428
:1046300081E008950E942E230C943A240E94332492
:1046400058F00E942C2440F029F45F3F29F00C948C
:10465000232451110C946E240C9429240E944B2481
:1046600068F39923B1F3552391F3951B550BBB27A1
:10467000AA2762177307840738F09F5F5F4F220FE6
:10468000331F441FAA1FA9F335D00E2E3AF0E0E8DD
:1046900032D091505040E695001CCAF72BD0FE2F27
:1046A00029D0660F771F881FBB1F261737074807BB
:1046B000AB07B0E809F0BB0B802DBF01FF27935873
:1046C0005F4F3AF09E3F510578F00C9423240C94F0
:1046D0006E245F3FE4F3983ED4F386957795679513
:1046E000B795F7959F5FC9F7880F911D96958795A8
:1046F00097F90895E1E0660F771F881FBB1F6217C7
:1047000073078407BA0720F0621B730B840BBA0B84
:10471000EE1F88F7E09508950E9493236894B111E5
:104720000C946E2408950E94532488F09F5798F0AB
:10473000B92F9927B751B0F0E1F0660F771F881FA6
:10474000991F1AF0BA95C9F714C0B13091F00E94C0
:104750006D24B1E008950C946D24672F782F88277D
:10476000B85F39F0B93FCCF3869577956795B395E7
:10477000D9F73EF490958095709561957F4F8F4F56
:104780009F4F0895E89409C097FB3EF4909580955B
:10479000709561957F4F8F4F9F4F9923A9F0F92F07
:1047A00096E9BB279395F695879577956795B79585
:1047B000F111F8CFFAF4BB0F11F460FF1BC06F5F6B
:1047C0007F4F8F4F9F4F16C0882311F096E911C07D
:1047D000772321F09EE8872F762F05C0662371F09E
:1047E00096E8862F70E060E02AF09A95660F771FB2
:1047F000881FDAF7880F9695879597F90895990F8E
:104800000008550FAA0BE0E8FEEF16161706E8079A
:10481000F907C0F012161306E407F50798F0621BBB
:10482000730B840B950B39F40A2661F0232B242B90
:10483000252B21F408950A2609F4A140A6958FEFAF
:10484000811D811D089597F99F6780E870E060E001
:1048500008959FEF80EC089500240A941616170619
:1048600018060906089500240A9412161306140661
:1048700005060895092E0394000C11F4882352F0C4
:10488000BB0F40F4BF2B11F460FF04C06F5F7F4F7C
:104890008F4F9F4F089557FD9058440F551F59F063
:1048A0005F3F71F04795880F97FB991F61F09F3F1D
:1048B00079F087950895121613061406551FF2CF46
:1048C0004695F1DF08C0161617061806991FF1CF96
:1048D00086957105610508940895E894BB276627BD
:1048E0007727CB0197F908950E94FF2308F48FEFF3
:1048F00008950E948C240C943A240E942C2438F0B1
:104900000E94332420F0952311F00C9423240C945E
:10491000292411240C946E240E944B2470F3959F3B
:10492000C1F3950F50E0551F629FF001729FBB27A6
:10493000F00DB11D639FAA27F00DB11DAA1F649F42
:104940006627B00DA11D661F829F2227B00DA11DF5
:10495000621F739FB00DA11D621F839FA00D611D7B
:10496000221F749F3327A00D611D231F849F600D9C
:10497000211D822F762F6A2F11249F5750409AF0C5
:10498000F1F088234AF0EE0FFF1FBB1F661F771F51
:10499000881F91505040A9F79E3F510580F00C941C
:1049A00023240C946E245F3FE4F3983ED4F3869561
:1049B00077956795B795F795E7959F5FC1F7FE2BBC
:1049C000880F911D9695879597F908950F931F93DA
:1049D000CF93DF938230910510F482E090E0E09174
:1049E000B20CF091B30C30E020E0B0E0A0E03097E2
:1049F00099F42115310509F44AC0281B390B2430DC
:104A00003105D8F58A819B816115710589F1FB011A
:104A100093838283FE0111C0408151810281138101
:104A200048175907E0F04817590799F4109761F0B3
:104A300012960C93129713961C933296CF01DF9126
:104A4000CF911F910F9108950093B20C1093B30C66
:104A5000F4CF2115310551F04217530738F0A90161
:104A6000DB019A01BD01DF01F801C1CFEF01F9CFF0
:104A70009093B30C8093B20CCDCFFE01E20FF31FE5
:104A8000819391932250310939832883D7CF209184
:104A9000B00C3091B10C232B41F4209116023091CF
:104AA00017023093B10C2093B00C20911402309176
:104AB00015022115310541F42DB73EB7409118027A
:104AC00050911902241B350BE091B00CF091B10C00
:104AD000E217F307A0F42E1B3F0B2817390778F0D5
:104AE000AC014E5F5F4F2417350748F04E0F5F1F34
:104AF0005093B10C4093B00C819391939FCFF0E011
:104B0000E0E09CCFCF93DF930097E9F0FC01329770
:104B100013821282A091B20CB091B30CED0130E07F
:104B200020E01097A1F420813181820F931F209102
:104B3000B00C3091B10C2817390709F061C0F0931F
:104B4000B10CE093B00CDF91CF910895EA01CE173C
:104B5000DF07E8F54A815B819E0141155105B1F7F8
:104B6000E901FB83EA8349915991C40FD51FEC17E2
:104B7000FD0761F4808191810296840F951FE90100
:104B800099838883828193819B838A83F0E0E0E02C
:104B900012968D919C9113970097B9F52D913C91A8
:104BA0001197CD010296820F931F2091B00C309186
:104BB000B10C2817390739F6309751F51092B30C1C
:104BC0001092B20CB093B10CA093B00CBCCFD383B5
:104BD000C28340815181840F951FC817D90761F4A2
:104BE0004E5F5F4F88819981480F591F51834083E1
:104BF0008A819B81938382832115310509F0B0CF8F
:104C0000F093B30CE093B20C9ECFFD01DC01C0CF5A
:104C100013821282D7CF4F925F926F927F928F92C0
:104C20009F92AF92BF92CF92DF92EF92FF920F933B
:104C30001F93CF93DF938C01009799F4CB01DF9101
:104C4000CF911F910F91FF90EF90DF90CF90BF9089
:104C5000AF909F908F907F906F905F904F900C944B
:104C6000E624FC01E60FF71F9C0122503109E217F0
:104C7000F30708F4AEC0D901CD91DC911197C617A6
:104C8000D70720F1C530D10578F0CE0104978617FB
:104C9000970750F0C61BD70B2297C193D1936D9302
:104CA0007C93CF010E948225C801DF91CF911F9193
:104CB0000F91FF90EF90DF90CF90BF90AF909F90BB
:104CC0008F907F906F905F904F9008955B01AC1A2A
:104CD000BD0A4C018C0E9D1EA091B20CB091B30C7C
:104CE000512C412CF12CE12C109731F58091B00C16
:104CF0009091B10C8815990509F05CC046165706CD
:104D000008F058C08091140290911502009741F468
:104D10008DB79EB74091180250911902841B950BD4
:104D2000E817F90708F055C0F093B10CE093B00C08
:104D3000F90171836083B8CF8D919C911197129680
:104D40006C90129713967C901397A815B90559F596
:104D50006C0142E0C40ED11CCA14DB0420F1AC018A
:104D60004A195B09DA011296159780F06282738204
:104D700051834083D9016D937C93E114F10471F068
:104D8000D7011396FC93EE9312978ECF22968C0F39
:104D90009D1FF90191838083F301EFCFF093B30C52
:104DA000E093B20C81CF4816590608F42C017D011E
:104DB000D3019ACFCB010E94E6247C01009749F0F1
:104DC000AE01B8010E94EC26C8010E94822587012D
:104DD0006BCF10E000E068CFFB01DC0102C0019066
:0E4DE0000D9241505040D8F70895F894FFCF3F
:104DEE00B403B403B403B403B403B403B403B403FD
:104DFE00D305DE050000B40C8000726F737365720C
:104E0E0069616C5F6D7367732F526571756573742D
:104E1E00506172616D00000000005D17B40AB10AA6
:104E2E00AE0A00000000F10BAB0BA80BA50B0000A7
:104E3E0000002D17580A550A520A000000004B04B4
:104E4E00B503E20398041304F10305040000000007
:104E5E002E09650D2B092809000000006809000EB7
:104E6E0025092209000000002B15D00D71066E06D3
:104E7E0000000000FE08E308E008DD080000000066
:104E8E000F15300ADA08D70800000000CC14770995
:104E9E0074097109000000004715030E6E096B09B5
:104EAE00000000004A16E90F4F0A4C0A00000000ED
:104EBE0078066C11690600000000EC0D7406710690
:104ECE006E063061373331346163326263353431AB
:104EDE003337323361623661633338383333306699
:104EEE0033630066656C6C6F776D655F6D736773AA
:104EFE002F576865656C73436D645374616D70658F
:104F0E0064004D6573736167652066726F6D206412
:104F1E0065766963652064726F707065643A206DA2
:104F2E00657373616765206C617267657220746862
:104F3E00616E206275666665722E003136323937C3
:104F4E0035663939396134643139633362646330BB
:104F5E0031363535393435313664610066656C6C01
:104F6E006F776D655F6D7367732F456E636F6465E5
:104F7E0072735374616D70656400653066306530B0
:104F8E003538326431666238656231666231333487
:104F9E00653964616365663139660066656C6C6F90
:104FAE00776D655F6D7367732F456E636F646572A2
:104FBE00730038356433656663626637373033396C
:104FCE00623463333939336534646363383732336B
:104FDE0036320066656C6C6F776D655F6D736773E7
:104FEE002F576865656C73436D6400656465636215
:104FFE003462366666663530663932376139303836
:10500E0037343235313565313637610066656C6C53
:10501E006F776D655F6D7367732F416E67756C612A
:10502E007256656C6F63697469657300333036361A
:10503E006463643736613663666165663537396237
:10504E006430663334313733653966640073656EA8
:10505E00736F725F6D7367732F4A6F696E745374DB
:10506E00617465003231373664656361656362630E
:10507E006537386162633362393665663034396656
:10508E0061626564007374645F6D7367732F486546
:10509E00616465720039663065393862646136352F
:1050AE003938313938366464663533616661376153
:1050BE0034306534390031316162643733316332F3
:1050CE0035393333323631636436313833626431D5
:1050DE0032643632393500726F7373657269616C82
:1050EE005F6D7367732F4C6F670030616435316687
:1050FE00383866633434383932663863313036388E
:10510E003430373736343630303500726F7373655E
:10511E007269616C5F6D7367732F546F7069634949
:10512E006E666F00636437313636633734633535F8
:10513E00326333313166626363326665356137627D
:10514E0063323839007374645F6D7367732F5469FB
:10515E006D650066656C6C6F776D655F626173651A
:10516E002F6D656173757265645F6A6F696E745FCA
:10517E007374617465730066656C6C6F776D655FD3
:10518E00626173652F656E636F646572732F7469E8
:10519E00636B73002F66656C6C6F776D652F776828
:1051AE0065656C5F636D645F76656C6F636974696A
:1051BE00657300776865656C5F6C6566740077680B
:0A51CE0065656C5F72696768740024
:00000001FF
